{
  "contractName": "Optimizedproject",
  "abi": [
    {
      "inputs": [
        {
          "name": "departmentname",
          "type": "string"
        }
      ],
      "payable": false,
      "stateMutability": "nonpayable",
      "type": "constructor"
    },
    {
      "constant": false,
      "inputs": [
        {
          "name": "_hash",
          "type": "address"
        },
        {
          "name": "_aadhar",
          "type": "string"
        }
      ],
      "name": "useregister",
      "outputs": [
        {
          "name": "",
          "type": "bool"
        }
      ],
      "payable": false,
      "stateMutability": "nonpayable",
      "type": "function"
    },
    {
      "constant": false,
      "inputs": [
        {
          "name": "_hash",
          "type": "address"
        }
      ],
      "name": "userlogin",
      "outputs": [
        {
          "name": "",
          "type": "bool"
        }
      ],
      "payable": false,
      "stateMutability": "nonpayable",
      "type": "function"
    },
    {
      "constant": false,
      "inputs": [
        {
          "name": "_hash",
          "type": "address"
        }
      ],
      "name": "userlogout",
      "outputs": [
        {
          "name": "",
          "type": "bool"
        }
      ],
      "payable": false,
      "stateMutability": "nonpayable",
      "type": "function"
    },
    {
      "constant": true,
      "inputs": [
        {
          "name": "_hash",
          "type": "address"
        }
      ],
      "name": "displayuserdetails",
      "outputs": [
        {
          "name": "",
          "type": "uint256"
        },
        {
          "name": "",
          "type": "address"
        },
        {
          "name": "",
          "type": "string"
        }
      ],
      "payable": false,
      "stateMutability": "view",
      "type": "function"
    },
    {
      "constant": false,
      "inputs": [
        {
          "name": "_hash",
          "type": "address"
        },
        {
          "name": "_aadhar",
          "type": "string"
        },
        {
          "name": "_vin",
          "type": "string"
        },
        {
          "name": "_numberplate",
          "type": "string"
        },
        {
          "name": "_licensenumber",
          "type": "string"
        }
      ],
      "name": "reqvehreg",
      "outputs": [],
      "payable": false,
      "stateMutability": "nonpayable",
      "type": "function"
    },
    {
      "constant": true,
      "inputs": [
        {
          "name": "num",
          "type": "uint256"
        },
        {
          "name": "hash",
          "type": "address"
        }
      ],
      "name": "checkvehrespond",
      "outputs": [
        {
          "name": "",
          "type": "bool"
        },
        {
          "name": "",
          "type": "uint256"
        },
        {
          "name": "",
          "type": "string"
        },
        {
          "name": "",
          "type": "string"
        },
        {
          "name": "",
          "type": "string"
        },
        {
          "name": "",
          "type": "string"
        }
      ],
      "payable": false,
      "stateMutability": "view",
      "type": "function"
    },
    {
      "constant": false,
      "inputs": [
        {
          "name": "num",
          "type": "uint256"
        },
        {
          "name": "_verifiedvehregcount",
          "type": "uint256"
        },
        {
          "name": "hash",
          "type": "address"
        },
        {
          "name": "decision",
          "type": "bool"
        }
      ],
      "name": "vehrespond",
      "outputs": [],
      "payable": false,
      "stateMutability": "nonpayable",
      "type": "function"
    },
    {
      "constant": false,
      "inputs": [
        {
          "name": "_hash",
          "type": "address"
        },
        {
          "name": "_vin",
          "type": "string"
        },
        {
          "name": "_numberplate",
          "type": "string"
        },
        {
          "name": "_licensenumber",
          "type": "string"
        }
      ],
      "name": "vehicleregistration",
      "outputs": [
        {
          "name": "",
          "type": "bool"
        }
      ],
      "payable": false,
      "stateMutability": "nonpayable",
      "type": "function"
    },
    {
      "constant": true,
      "inputs": [
        {
          "name": "_hash",
          "type": "address"
        },
        {
          "name": "_number",
          "type": "uint256"
        }
      ],
      "name": "displayvehicledetails",
      "outputs": [
        {
          "name": "",
          "type": "uint256"
        },
        {
          "name": "",
          "type": "string"
        },
        {
          "name": "",
          "type": "string"
        },
        {
          "name": "",
          "type": "string"
        }
      ],
      "payable": false,
      "stateMutability": "view",
      "type": "function"
    },
    {
      "constant": false,
      "inputs": [
        {
          "name": "_departmentNo",
          "type": "uint256"
        },
        {
          "name": "_from",
          "type": "address"
        },
        {
          "name": "_to",
          "type": "address"
        },
        {
          "name": "_variety",
          "type": "bool"
        }
      ],
      "name": "request",
      "outputs": [],
      "payable": false,
      "stateMutability": "nonpayable",
      "type": "function"
    },
    {
      "constant": true,
      "inputs": [
        {
          "name": "number",
          "type": "uint256"
        },
        {
          "name": "hash",
          "type": "address"
        }
      ],
      "name": "checkrespond",
      "outputs": [
        {
          "name": "",
          "type": "uint256"
        },
        {
          "name": "",
          "type": "uint256"
        },
        {
          "name": "",
          "type": "address"
        },
        {
          "name": "",
          "type": "bool"
        }
      ],
      "payable": false,
      "stateMutability": "view",
      "type": "function"
    },
    {
      "constant": false,
      "inputs": [
        {
          "name": "number",
          "type": "uint256"
        },
        {
          "name": "_from",
          "type": "address"
        },
        {
          "name": "_to",
          "type": "address"
        },
        {
          "name": "_variety",
          "type": "bool"
        },
        {
          "name": "_decision",
          "type": "bool"
        }
      ],
      "name": "respond",
      "outputs": [
        {
          "name": "",
          "type": "bool"
        }
      ],
      "payable": false,
      "stateMutability": "nonpayable",
      "type": "function"
    },
    {
      "constant": false,
      "inputs": [
        {
          "name": "hash",
          "type": "address"
        },
        {
          "name": "_name",
          "type": "string"
        },
        {
          "name": "_opinion",
          "type": "bool"
        }
      ],
      "name": "departmentrequest",
      "outputs": [],
      "payable": false,
      "stateMutability": "nonpayable",
      "type": "function"
    },
    {
      "constant": true,
      "inputs": [
        {
          "name": "hash",
          "type": "address"
        }
      ],
      "name": "deptcheckrespond",
      "outputs": [
        {
          "name": "",
          "type": "uint256"
        },
        {
          "name": "",
          "type": "uint256"
        },
        {
          "name": "",
          "type": "address"
        },
        {
          "name": "",
          "type": "string"
        }
      ],
      "payable": false,
      "stateMutability": "view",
      "type": "function"
    },
    {
      "constant": false,
      "inputs": [
        {
          "name": "_from",
          "type": "address"
        },
        {
          "name": "_to",
          "type": "address"
        },
        {
          "name": "_name",
          "type": "string"
        },
        {
          "name": "_opinion",
          "type": "bool"
        }
      ],
      "name": "deptrespond",
      "outputs": [
        {
          "name": "",
          "type": "bool"
        }
      ],
      "payable": false,
      "stateMutability": "nonpayable",
      "type": "function"
    },
    {
      "constant": true,
      "inputs": [
        {
          "name": "num",
          "type": "uint256"
        },
        {
          "name": "hash",
          "type": "address"
        }
      ],
      "name": "getdeptcount",
      "outputs": [
        {
          "name": "",
          "type": "uint256"
        }
      ],
      "payable": false,
      "stateMutability": "view",
      "type": "function"
    },
    {
      "constant": true,
      "inputs": [
        {
          "name": "num",
          "type": "uint256"
        },
        {
          "name": "hash",
          "type": "address"
        }
      ],
      "name": "getdeptinfo",
      "outputs": [
        {
          "name": "",
          "type": "string"
        }
      ],
      "payable": false,
      "stateMutability": "view",
      "type": "function"
    },
    {
      "constant": true,
      "inputs": [
        {
          "name": "dn",
          "type": "uint256"
        },
        {
          "name": "uaadhar",
          "type": "string"
        },
        {
          "name": "uvin",
          "type": "string"
        },
        {
          "name": "unumberplate",
          "type": "string"
        },
        {
          "name": "ulicensenumber",
          "type": "string"
        }
      ],
      "name": "checkcitizendetails",
      "outputs": [
        {
          "name": "",
          "type": "bool"
        },
        {
          "name": "",
          "type": "string"
        },
        {
          "name": "",
          "type": "string"
        },
        {
          "name": "",
          "type": "string"
        },
        {
          "name": "",
          "type": "string"
        }
      ],
      "payable": false,
      "stateMutability": "view",
      "type": "function"
    },
    {
      "constant": true,
      "inputs": [
        {
          "name": "_departmentNo",
          "type": "uint256"
        },
        {
          "name": "_hash",
          "type": "address"
        }
      ],
      "name": "getdeptmembershipstatus",
      "outputs": [
        {
          "name": "",
          "type": "bool"
        }
      ],
      "payable": false,
      "stateMutability": "view",
      "type": "function"
    },
    {
      "constant": true,
      "inputs": [
        {
          "name": "num",
          "type": "uint256"
        },
        {
          "name": "_hash",
          "type": "address"
        }
      ],
      "name": "vehreqexist",
      "outputs": [
        {
          "name": "",
          "type": "bool"
        }
      ],
      "payable": false,
      "stateMutability": "view",
      "type": "function"
    },
    {
      "constant": true,
      "inputs": [
        {
          "name": "num",
          "type": "uint256"
        },
        {
          "name": "_hash",
          "type": "address"
        }
      ],
      "name": "getvehreqdetails",
      "outputs": [
        {
          "name": "",
          "type": "string"
        },
        {
          "name": "",
          "type": "bool"
        }
      ],
      "payable": false,
      "stateMutability": "view",
      "type": "function"
    },
    {
      "constant": true,
      "inputs": [],
      "name": "getdeptreqscount",
      "outputs": [
        {
          "name": "",
          "type": "uint256"
        }
      ],
      "payable": false,
      "stateMutability": "view",
      "type": "function"
    },
    {
      "constant": true,
      "inputs": [
        {
          "name": "i",
          "type": "uint256"
        },
        {
          "name": "_hash",
          "type": "address"
        }
      ],
      "name": "getdeptreqdetails",
      "outputs": [
        {
          "name": "",
          "type": "address"
        },
        {
          "name": "",
          "type": "string"
        },
        {
          "name": "",
          "type": "bool"
        }
      ],
      "payable": false,
      "stateMutability": "view",
      "type": "function"
    },
    {
      "constant": true,
      "inputs": [
        {
          "name": "dno",
          "type": "uint256"
        }
      ],
      "name": "getmemreqscount",
      "outputs": [
        {
          "name": "",
          "type": "uint256"
        }
      ],
      "payable": false,
      "stateMutability": "view",
      "type": "function"
    },
    {
      "constant": true,
      "inputs": [
        {
          "name": "dno",
          "type": "uint256"
        },
        {
          "name": "i",
          "type": "uint256"
        }
      ],
      "name": "getmemreqdetails",
      "outputs": [
        {
          "name": "",
          "type": "address"
        },
        {
          "name": "",
          "type": "bool"
        },
        {
          "name": "",
          "type": "bool"
        }
      ],
      "payable": false,
      "stateMutability": "view",
      "type": "function"
    }
  ],
  "bytecode": "0x6080604052600080556000600455600060055560006008553480156200002457600080fd5b506040516200616a3803806200616a8339810180604052810190808051820192919050505060016008540160088190555080600760006001815260200190815260200160002060030190805190602001906200008292919062000191565b5060016007600060018152602001908152602001600020600001819055506001600760006001815260200190815260200160002060010181905550600060076000600181526020019081526020016000206002018190555033600760006001815260200190815260200160002060050160006001815260200190815260200160002060020160006101000a81548173ffffffffffffffffffffffffffffffffffffffff021916908373ffffffffffffffffffffffffffffffffffffffff1602179055506001600760006001815260200190815260200160002060050160006001815260200190815260200160002060020160146101000a81548160ff0219169083151502179055505062000240565b828054600181600116156101000203166002900490600052602060002090601f016020900481019282601f10620001d457805160ff191683800117855562000205565b8280016001018555821562000205579182015b8281111562000204578251825591602001919060010190620001e7565b5b50905062000214919062000218565b5090565b6200023d91905b80821115620002395760008160009055506001016200021f565b5090565b90565b615f1a80620002506000396000f300608060405260043610610149576000357c0100000000000000000000000000000000000000000000000000000000900463ffffffff168063033a38b01461014e5780630dbf23f4146101b3578063194e4acd146102e0578063228e41bd1461043b5780632b5630c21461049c5780632fe719151461064157806343bb6a63146106ba57806347b72b89146106fb578063692f74aa146107605780638550226414610831578063a4a68e441461092e578063a5a65bba14610989578063a9bb03a414610ba5578063ab05176714610c72578063be44e2d614610ccd578063c03795ba14610cf8578063c71ad84d14610d8d578063da5196e014610df0578063dc15c63514610e7d578063dc1790e314610f43578063dfe7148614611047578063e186fb271461113d578063e4abae321461144a578063eb78a2af146114e7578063f60f1ccb1461158d575b600080fd5b34801561015a57600080fd5b5061019960048036038101908080359060200190929190803573ffffffffffffffffffffffffffffffffffffffff16906020019092919050505061162e565b604051808215151515815260200191505060405180910390f35b3480156101bf57600080fd5b506102c6600480360381019080803573ffffffffffffffffffffffffffffffffffffffff169060200190929190803590602001908201803590602001908080601f0160208091040260200160405190810160405280939291908181526020018383808284378201915050505050509192919290803590602001908201803590602001908080601f0160208091040260200160405190810160405280939291908181526020018383808284378201915050505050509192919290803590602001908201803590602001908080601f0160208091040260200160405190810160405280939291908181526020018383808284378201915050505050509192919290505050611747565b604051808215151515815260200191505060405180910390f35b3480156102ec57600080fd5b50610439600480360381019080803573ffffffffffffffffffffffffffffffffffffffff169060200190929190803590602001908201803590602001908080601f0160208091040260200160405190810160405280939291908181526020018383808284378201915050505050509192919290803590602001908201803590602001908080601f0160208091040260200160405190810160405280939291908181526020018383808284378201915050505050509192919290803590602001908201803590602001908080601f0160208091040260200160405190810160405280939291908181526020018383808284378201915050505050509192919290803590602001908201803590602001908080601f0160208091040260200160405190810160405280939291908181526020018383808284378201915050505050509192919290505050611b7d565b005b34801561044757600080fd5b5061048660048036038101908080359060200190929190803573ffffffffffffffffffffffffffffffffffffffff169060200190929190505050611cec565b6040518082815260200191505060405180910390f35b3480156104a857600080fd5b506104e7600480360381019080803573ffffffffffffffffffffffffffffffffffffffff16906020019092919080359060200190929190505050611da8565b60405180858152602001806020018060200180602001848103845287818151815260200191508051906020019080838360005b8381101561053557808201518184015260208101905061051a565b50505050905090810190601f1680156105625780820380516001836020036101000a031916815260200191505b50848103835286818151815260200191508051906020019080838360005b8381101561059b578082015181840152602081019050610580565b50505050905090810190601f1680156105c85780820380516001836020036101000a031916815260200191505b50848103825285818151815260200191508051906020019080838360005b838110156106015780820151818401526020810190506105e6565b50505050905090810190601f16801561062e5780820380516001836020036101000a031916815260200191505b5097505050505050505060405180910390f35b34801561064d57600080fd5b506106b860048036038101908080359060200190929190803573ffffffffffffffffffffffffffffffffffffffff169060200190929190803573ffffffffffffffffffffffffffffffffffffffff16906020019092919080351515906020019092919050505061213f565b005b3480156106c657600080fd5b506106e56004803603810190808035906020019092919050505061279a565b6040518082815260200191505060405180910390f35b34801561070757600080fd5b5061074660048036038101908080359060200190929190803573ffffffffffffffffffffffffffffffffffffffff1690602001909291905050506127ba565b604051808215151515815260200191505060405180910390f35b34801561076c57600080fd5b506107ab60048036038101908080359060200190929190803573ffffffffffffffffffffffffffffffffffffffff169060200190929190505050612875565b604051808060200183151515158152602001828103825284818151815260200191508051906020019080838360005b838110156107f55780820151818401526020810190506107da565b50505050905090810190601f1680156108225780820380516001836020036101000a031916815260200191505b50935050505060405180910390f35b34801561083d57600080fd5b50610872600480360381019080803573ffffffffffffffffffffffffffffffffffffffff1690602001909291905050506129a9565b604051808581526020018481526020018373ffffffffffffffffffffffffffffffffffffffff1673ffffffffffffffffffffffffffffffffffffffff16815260200180602001828103825283818151815260200191508051906020019080838360005b838110156108f05780820151818401526020810190506108d5565b50505050905090810190601f16801561091d5780820380516001836020036101000a031916815260200191505b509550505050505060405180910390f35b34801561093a57600080fd5b5061096f600480360381019080803573ffffffffffffffffffffffffffffffffffffffff169060200190929190505050612bdc565b604051808215151515815260200191505060405180910390f35b34801561099557600080fd5b506109d460048036038101908080359060200190929190803573ffffffffffffffffffffffffffffffffffffffff169060200190929190505050612c7c565b604051808715151515815260200186815260200180602001806020018060200180602001858103855289818151815260200191508051906020019080838360005b83811015610a30578082015181840152602081019050610a15565b50505050905090810190601f168015610a5d5780820380516001836020036101000a031916815260200191505b50858103845288818151815260200191508051906020019080838360005b83811015610a96578082015181840152602081019050610a7b565b50505050905090810190601f168015610ac35780820380516001836020036101000a031916815260200191505b50858103835287818151815260200191508051906020019080838360005b83811015610afc578082015181840152602081019050610ae1565b50505050905090810190601f168015610b295780820380516001836020036101000a031916815260200191505b50858103825286818151815260200191508051906020019080838360005b83811015610b62578082015181840152602081019050610b47565b50505050905090810190601f168015610b8f5780820380516001836020036101000a031916815260200191505b509a505050505050505050505060405180910390f35b348015610bb157600080fd5b50610c58600480360381019080803573ffffffffffffffffffffffffffffffffffffffff169060200190929190803573ffffffffffffffffffffffffffffffffffffffff169060200190929190803590602001908201803590602001908080601f016020809104026020016040519081016040528093929190818152602001838380828437820191505050505050919291929080351515906020019092919050505061318d565b604051808215151515815260200191505060405180910390f35b348015610c7e57600080fd5b50610cb3600480360381019080803573ffffffffffffffffffffffffffffffffffffffff16906020019092919050505061352d565b604051808215151515815260200191505060405180910390f35b348015610cd957600080fd5b50610ce26135c9565b6040518082815260200191505060405180910390f35b348015610d0457600080fd5b50610d8b600480360381019080803573ffffffffffffffffffffffffffffffffffffffff169060200190929190803590602001908201803590602001908080601f01602080910402602001604051908101604052809392919081815260200183838082843782019150505050505091929192908035151590602001909291905050506135d3565b005b348015610d9957600080fd5b50610dee6004803603810190808035906020019092919080359060200190929190803573ffffffffffffffffffffffffffffffffffffffff1690602001909291908035151590602001909291905050506139cf565b005b348015610dfc57600080fd5b50610e256004803603810190808035906020019092919080359060200190929190505050613ad0565b604051808473ffffffffffffffffffffffffffffffffffffffff1673ffffffffffffffffffffffffffffffffffffffff1681526020018315151515815260200182151515158152602001935050505060405180910390f35b348015610e8957600080fd5b50610ec860048036038101908080359060200190929190803573ffffffffffffffffffffffffffffffffffffffff169060200190929190505050613c7e565b6040518080602001828103825283818151815260200191508051906020019080838360005b83811015610f08578082015181840152602081019050610eed565b50505050905090810190601f168015610f355780820380516001836020036101000a031916815260200191505b509250505060405180910390f35b348015610f4f57600080fd5b50610f8e60048036038101908080359060200190929190803573ffffffffffffffffffffffffffffffffffffffff169060200190929190505050613de6565b604051808473ffffffffffffffffffffffffffffffffffffffff1673ffffffffffffffffffffffffffffffffffffffff1681526020018060200183151515158152602001828103825284818151815260200191508051906020019080838360005b8381101561100a578082015181840152602081019050610fef565b50505050905090810190601f1680156110375780820380516001836020036101000a031916815260200191505b5094505050505060405180910390f35b34801561105357600080fd5b50611088600480360381019080803573ffffffffffffffffffffffffffffffffffffffff169060200190929190505050613fd4565b604051808481526020018373ffffffffffffffffffffffffffffffffffffffff1673ffffffffffffffffffffffffffffffffffffffff16815260200180602001828103825283818151815260200191508051906020019080838360005b838110156111005780820151818401526020810190506110e5565b50505050905090810190601f16801561112d5780820380516001836020036101000a031916815260200191505b5094505050505060405180910390f35b34801561114957600080fd5b5061128060048036038101908080359060200190929190803590602001908201803590602001908080601f0160208091040260200160405190810160405280939291908181526020018383808284378201915050505050509192919290803590602001908201803590602001908080601f0160208091040260200160405190810160405280939291908181526020018383808284378201915050505050509192919290803590602001908201803590602001908080601f0160208091040260200160405190810160405280939291908181526020018383808284378201915050505050509192919290803590602001908201803590602001908080601f01602080910402602001604051908101604052809392919081815260200183838082843782019150505050505091929192905050506141a4565b604051808615151515815260200180602001806020018060200180602001858103855289818151815260200191508051906020019080838360005b838110156112d65780820151818401526020810190506112bb565b50505050905090810190601f1680156113035780820380516001836020036101000a031916815260200191505b50858103845288818151815260200191508051906020019080838360005b8381101561133c578082015181840152602081019050611321565b50505050905090810190601f1680156113695780820380516001836020036101000a031916815260200191505b50858103835287818151815260200191508051906020019080838360005b838110156113a2578082015181840152602081019050611387565b50505050905090810190601f1680156113cf5780820380516001836020036101000a031916815260200191505b50858103825286818151815260200191508051906020019080838360005b838110156114085780820151818401526020810190506113ed565b50505050905090810190601f1680156114355780820380516001836020036101000a031916815260200191505b50995050505050505050505060405180910390f35b34801561145657600080fd5b506114cd60048036038101908080359060200190929190803573ffffffffffffffffffffffffffffffffffffffff169060200190929190803573ffffffffffffffffffffffffffffffffffffffff16906020019092919080351515906020019092919080351515906020019092919050505061429f565b604051808215151515815260200191505060405180910390f35b3480156114f357600080fd5b5061153260048036038101908080359060200190929190803573ffffffffffffffffffffffffffffffffffffffff1690602001909291905050506147ca565b604051808581526020018481526020018373ffffffffffffffffffffffffffffffffffffffff1673ffffffffffffffffffffffffffffffffffffffff1681526020018215151515815260200194505050505060405180910390f35b34801561159957600080fd5b50611614600480360381019080803573ffffffffffffffffffffffffffffffffffffffff169060200190929190803590602001908201803590602001908080601f01602080910402602001604051908101604052809392919081815260200183838082843782019150505050505091929192905050506149ce565b604051808215151515815260200191505060405180910390f35b60008060008373ffffffffffffffffffffffffffffffffffffffff163373ffffffffffffffffffffffffffffffffffffffff1614151561166d57600080fd5b600260008573ffffffffffffffffffffffffffffffffffffffff1673ffffffffffffffffffffffffffffffffffffffff168152602001908152602001600020600101805490509150600190505b818111151561173a5784600260008673ffffffffffffffffffffffffffffffffffffffff1673ffffffffffffffffffffffffffffffffffffffff1681526020019081526020016000206001018281548110151561171357fe5b9060005260206000200154141561172d576001925061173f565b80806001019150506116ba565b600092505b505092915050565b6000803373ffffffffffffffffffffffffffffffffffffffff168673ffffffffffffffffffffffffffffffffffffffff1614151561178457600080fd5b60011515600260008873ffffffffffffffffffffffffffffffffffffffff1673ffffffffffffffffffffffffffffffffffffffff16815260200190815260200160002060030160009054906101000a900460ff1615151415156117e657600080fd5b600015156117f48787614b53565b151514151561180257600080fd5b600015156118108786614d14565b151514151561181e57600080fd5b611904600260008873ffffffffffffffffffffffffffffffffffffffff1673ffffffffffffffffffffffffffffffffffffffff1681526020019081526020016000206002018054600181600116156101000203166002900480601f0160208091040260200160405190810160405280929190818152602001828054600181600116156101000203166002900480156118f75780601f106118cc576101008083540402835291602001916118f7565b820191906000526020600020905b8154815290600101906020018083116118da57829003601f168201915b5050505050868686614ed5565b151561190f57600080fd5b6001600260008873ffffffffffffffffffffffffffffffffffffffff1673ffffffffffffffffffffffffffffffffffffffff1681526020019081526020016000206000015401600260008873ffffffffffffffffffffffffffffffffffffffff1673ffffffffffffffffffffffffffffffffffffffff16815260200190815260200160002060000181905550600260008773ffffffffffffffffffffffffffffffffffffffff1673ffffffffffffffffffffffffffffffffffffffff16815260200190815260200160002060000154905080600360008873ffffffffffffffffffffffffffffffffffffffff1673ffffffffffffffffffffffffffffffffffffffff16815260200190815260200160002060008381526020019081526020016000206000018190555084600360008873ffffffffffffffffffffffffffffffffffffffff1673ffffffffffffffffffffffffffffffffffffffff16815260200190815260200160002060008381526020019081526020016000206001019080519060200190611a9f929190615e49565b5083600360008873ffffffffffffffffffffffffffffffffffffffff1673ffffffffffffffffffffffffffffffffffffffff16815260200190815260200160002060008381526020019081526020016000206002019080519060200190611b07929190615e49565b5082600360008873ffffffffffffffffffffffffffffffffffffffff1673ffffffffffffffffffffffffffffffffffffffff16815260200190815260200160002060008381526020019081526020016000206003019080519060200190611b6f929190615e49565b506001915050949350505050565b3373ffffffffffffffffffffffffffffffffffffffff168573ffffffffffffffffffffffffffffffffffffffff16141515611bb757600080fd5b600160045401600481905550600260008673ffffffffffffffffffffffffffffffffffffffff1673ffffffffffffffffffffffffffffffffffffffff1681526020019081526020016000206001016004549080600181540180825580915050906001820390600052602060002001600090919290919091505550836006600060045481526020019081526020016000206000019080519060200190611c5d929190615e49565b50826006600060045481526020019081526020016000206001019080519060200190611c8a929190615e49565b50816006600060045481526020019081526020016000206002019080519060200190611cb7929190615e49565b50806006600060045481526020019081526020016000206003019080519060200190611ce4929190615e49565b505050505050565b600082823373ffffffffffffffffffffffffffffffffffffffff168173ffffffffffffffffffffffffffffffffffffffff16148015611d7e575060011515600260008373ffffffffffffffffffffffffffffffffffffffff1673ffffffffffffffffffffffffffffffffffffffff16815260200190815260200160002060030160009054906101000a900460ff161515145b8015611d905750611d8f828261523b565b5b1515611d9b57600080fd5b6008549250505092915050565b600060608060603373ffffffffffffffffffffffffffffffffffffffff168673ffffffffffffffffffffffffffffffffffffffff16141515611de957600080fd5b60011515600260008873ffffffffffffffffffffffffffffffffffffffff1673ffffffffffffffffffffffffffffffffffffffff16815260200190815260200160002060030160009054906101000a900460ff161515141515611e4b57600080fd5b611e55868661536b565b1515611e6057600080fd5b84600360008873ffffffffffffffffffffffffffffffffffffffff1673ffffffffffffffffffffffffffffffffffffffff1681526020019081526020016000206000878152602001908152602001600020600101600360008973ffffffffffffffffffffffffffffffffffffffff1673ffffffffffffffffffffffffffffffffffffffff1681526020019081526020016000206000888152602001908152602001600020600201600360008a73ffffffffffffffffffffffffffffffffffffffff1673ffffffffffffffffffffffffffffffffffffffff1681526020019081526020016000206000898152602001908152602001600020600301828054600181600116156101000203166002900480601f016020809104026020016040519081016040528092919081815260200182805460018160011615610100020316600290048015611fef5780601f10611fc457610100808354040283529160200191611fef565b820191906000526020600020905b815481529060010190602001808311611fd257829003601f168201915b50505050509250818054600181600116156101000203166002900480601f01602080910402602001604051908101604052809291908181526020018280546001816001161561010002031660029004801561208b5780601f106120605761010080835404028352916020019161208b565b820191906000526020600020905b81548152906001019060200180831161206e57829003601f168201915b50505050509150808054600181600116156101000203166002900480601f0160208091040260200160405190810160405280929190818152602001828054600181600116156101000203166002900480156121275780601f106120fc57610100808354040283529160200191612127565b820191906000526020600020905b81548152906001019060200180831161210a57829003601f168201915b50505050509050935093509350935092959194509250565b60008060008087873373ffffffffffffffffffffffffffffffffffffffff168173ffffffffffffffffffffffffffffffffffffffff161480156121d5575060011515600260008373ffffffffffffffffffffffffffffffffffffffff1673ffffffffffffffffffffffffffffffffffffffff16815260200190815260200160002060030160009054906101000a900460ff161515145b80156121e757506121e6828261523b565b5b15156121f257600080fd5b600015156122018b8a8a6153d7565b151514151561220f57600080fd5b6001600760008c81526020019081526020016000206002015401600760008c815260200190815260200160002060020181905550600760008b815260200190815260200160002060020154955087600760008c8152602001908152602001600020600401600088815260200190815260200160002060000160006101000a81548173ffffffffffffffffffffffffffffffffffffffff021916908373ffffffffffffffffffffffffffffffffffffffff16021790555086600760008c8152602001908152602001600020600401600088815260200190815260200160002060000160146101000a81548160ff0219169083151502179055506123118a8a615537565b94506001600760008c815260200190815260200160002060050160008781526020019081526020016000206000015401600760008c8152602001908152602001600020600501600087815260200190815260200160002060000181905550600760008b8152602001908152602001600020600501600086815260200190815260200160002060000154935087600760008c81526020019081526020016000206005016000878152602001908152602001600020600301600086815260200190815260200160002060000160006101000a81548173ffffffffffffffffffffffffffffffffffffffff021916908373ffffffffffffffffffffffffffffffffffffffff1602179055506001600760008c81526020019081526020016000206005016000878152602001908152602001600020600301600086815260200190815260200160002060020160006101000a81548160ff02191690831515021790555086600760008c81526020019081526020016000206005016000878152602001908152602001600020600301600086815260200190815260200160002060020160016101000a81548160ff02191690831515021790555061251b8a600760008d8152602001908152602001600020600401600089815260200190815260200160002060000160009054906101000a900473ffffffffffffffffffffffffffffffffffffffff1689615646565b1561278e576001600760008c8152602001908152602001600020600401600088815260200190815260200160002060000160156101000a81548160ff0219169083151502179055508615612709576001600760008c81526020019081526020016000206000015401600760008c8152602001908152602001600020600001819055506001600760008c81526020019081526020016000206001015401600760008c81526020019081526020016000206001018190555087600760008c81526020019081526020016000206005016000600760008e815260200190815260200160002060000154815260200190815260200160002060020160006101000a81548173ffffffffffffffffffffffffffffffffffffffff021916908373ffffffffffffffffffffffffffffffffffffffff1602179055506001600760008c81526020019081526020016000206005016000600760008e815260200190815260200160002060000154815260200190815260200160002060020160146101000a81548160ff021916908315150217905550600760008b815260200190815260200160002060020154600760008c81526020019081526020016000206005016000600760008e81526020019081526020016000206000015481526020019081526020016000206000018190555061278d565b6127138a89615537565b92506001600760008c81526020019081526020016000206001015403600760008c8152602001908152602001600020600101819055506000600760008c8152602001908152602001600020600501600085815260200190815260200160002060020160146101000a81548160ff0219169083151502179055505b5b50505050505050505050565b600060076000838152602001908152602001600020600201549050919050565b60003373ffffffffffffffffffffffffffffffffffffffff168273ffffffffffffffffffffffffffffffffffffffff1614801561284a575060011515600260008473ffffffffffffffffffffffffffffffffffffffff1673ffffffffffffffffffffffffffffffffffffffff16815260200190815260200160002060030160009054906101000a900460ff161515145b801561285c575061285b838361523b565b5b1561286a576001905061286f565b600090505b92915050565b606060003373ffffffffffffffffffffffffffffffffffffffff168373ffffffffffffffffffffffffffffffffffffffff161415156128b357600080fd5b6128bd848461162e565b15156128c857600080fd5b600660008581526020019081526020016000206001016006600086815260200190815260200160002060040160009054906101000a900460ff16818054600181600116156101000203166002900480601f0160208091040260200160405190810160405280929190818152602001828054600181600116156101000203166002900480156129975780601f1061296c57610100808354040283529160200191612997565b820191906000526020600020905b81548152906001019060200180831161297a57829003601f168201915b50505050509150915091509250929050565b600080600060606000806001873373ffffffffffffffffffffffffffffffffffffffff168173ffffffffffffffffffffffffffffffffffffffff16148015612a44575060011515600260008373ffffffffffffffffffffffffffffffffffffffff1673ffffffffffffffffffffffffffffffffffffffff16815260200190815260200160002060030160009054906101000a900460ff161515145b8015612a565750612a55828261523b565b5b1515612a6157600080fd5b612a6c60018a615537565b935060076000600181526020019081526020016000206005016000858152602001908152602001600020600101549250600954831015612ba95760018301600954600a600060018701815260200190815260200160002060000160009054906101000a900473ffffffffffffffffffffffffffffffffffffffff16600a6000600188018152602001908152602001600020600101808054600181600116156101000203166002900480601f016020809104026020016040519081016040528092919081815260200182805460018160011615610100020316600290048015612b955780601f10612b6a57610100808354040283529160200191612b95565b820191906000526020600020905b815481529060010190602001808311612b7857829003601f168201915b505050505090509750975097509750612bd1565b6000806000829250819150809050602060405190810160405280600081525097509750975097505b505050509193509193565b60003373ffffffffffffffffffffffffffffffffffffffff168273ffffffffffffffffffffffffffffffffffffffff16141515612c1857600080fd5b6001600260008473ffffffffffffffffffffffffffffffffffffffff1673ffffffffffffffffffffffffffffffffffffffff16815260200190815260200160002060030160006101000a81548160ff02191690831515021790555060019050919050565b60008060608060608087873373ffffffffffffffffffffffffffffffffffffffff168173ffffffffffffffffffffffffffffffffffffffff16148015612d15575060011515600260008373ffffffffffffffffffffffffffffffffffffffff1673ffffffffffffffffffffffffffffffffffffffff16815260200190815260200160002060030160009054906101000a900460ff161515145b8015612d275750612d26828261523b565b5b1515612d3257600080fd5b612e1f600760008c81526020019081526020016000206003018054600181600116156101000203166002900480601f016020809104026020016040519081016040528092919081815260200182805460018160011615610100020316600290048015612ddf5780601f10612db457610100808354040283529160200191612ddf565b820191906000526020600020905b815481529060010190602001808311612dc257829003601f168201915b50505050506040805190810160405280600281526020017f44320000000000000000000000000000000000000000000000000000000000008152506158bd565b1515612e2a57600080fd5b600454600554101561312b576000600160055401600660006001600554018152602001908152602001600020600001600660006001600554018152602001908152602001600020600101600660006001600554018152602001908152602001600020600201600660006001600554018152602001908152602001600020600301838054600181600116156101000203166002900480601f016020809104026020016040519081016040528092919081815260200182805460018160011615610100020316600290048015612f3f5780601f10612f1457610100808354040283529160200191612f3f565b820191906000526020600020905b815481529060010190602001808311612f2257829003601f168201915b50505050509350828054600181600116156101000203166002900480601f016020809104026020016040519081016040528092919081815260200182805460018160011615610100020316600290048015612fdb5780601f10612fb057610100808354040283529160200191612fdb565b820191906000526020600020905b815481529060010190602001808311612fbe57829003601f168201915b50505050509250818054600181600116156101000203166002900480601f0160208091040260200160405190810160405280929190818152602001828054600181600116156101000203166002900480156130775780601f1061304c57610100808354040283529160200191613077565b820191906000526020600020905b81548152906001019060200180831161305a57829003601f168201915b50505050509150808054600181600116156101000203166002900480601f0160208091040260200160405190810160405280929190818152602001828054600181600116156101000203166002900480156131135780601f106130e857610100808354040283529160200191613113565b820191906000526020600020905b8154815290600101906020018083116130f657829003601f168201915b50505050509050975097509750975097509750613181565b600160045460206040519081016040528060008152506020604051908101604052806000815250602060405190810160405280600081525060206040519081016040528060008152509750975097509750975097505b50509295509295509295565b60008060006001873373ffffffffffffffffffffffffffffffffffffffff168173ffffffffffffffffffffffffffffffffffffffff16148015613223575060011515600260008373ffffffffffffffffffffffffffffffffffffffff1673ffffffffffffffffffffffffffffffffffffffff16815260200190815260200160002060030160009054906101000a900460ff161515145b80156132355750613234828261523b565b5b151561324057600080fd5b6009546007600060018152602001908152602001600020600501600061326760018d615537565b81526020019081526020016000206001015410151561328557600080fd5b61329060018a615537565b935060016007600060018152602001908152602001600020600501600086815260200190815260200160002060010154019250826007600060018152602001908152602001600020600501600086815260200190815260200160002060010181905550866007600060018152602001908152602001600020600501600086815260200190815260200160002060040160008581526020019081526020016000206001019080519060200190613346929190615e49565b508560076000600181526020019081526020016000206005016000868152602001908152602001600020600401600085815260200190815260200160002060020160006101000a81548160ff0219169083151502179055506133a787615a3f565b15613521576001600a600085815260200190815260200160002060020160006101000a81548160ff021916908315150217905550600160085401600881905550866007600060085481526020019081526020016000206003019080519060200190613413929190615e49565b506001600760006008548152602001908152602001600020600001819055506001600760006008548152602001908152602001600020600101819055506000600760006008548152602001908152602001600020600201819055508760076000600854815260200190815260200160002060050160006001815260200190815260200160002060020160006101000a81548173ffffffffffffffffffffffffffffffffffffffff021916908373ffffffffffffffffffffffffffffffffffffffff160217905550600160076000600854815260200190815260200160002060050160006001815260200190815260200160002060020160146101000a81548160ff0219169083151502179055505b50505050949350505050565b60003373ffffffffffffffffffffffffffffffffffffffff168273ffffffffffffffffffffffffffffffffffffffff1614151561356957600080fd5b6000600260008473ffffffffffffffffffffffffffffffffffffffff1673ffffffffffffffffffffffffffffffffffffffff16815260200190815260200160002060030160006101000a81548160ff021916908315150217905550919050565b6000600954905090565b6000806001853373ffffffffffffffffffffffffffffffffffffffff168173ffffffffffffffffffffffffffffffffffffffff16148015613667575060011515600260008373ffffffffffffffffffffffffffffffffffffffff1673ffffffffffffffffffffffffffffffffffffffff16815260200190815260200160002060030160009054906101000a900460ff161515145b80156136795750613678828261523b565b5b151561368457600080fd5b61368d86615cae565b151561369857600080fd5b60016009540160098190555086600a6000600954815260200190815260200160002060000160006101000a81548173ffffffffffffffffffffffffffffffffffffffff021916908373ffffffffffffffffffffffffffffffffffffffff16021790555085600a600060095481526020019081526020016000206001019080519060200190613727929190615e49565b50613733600188615537565b9350600160076000600181526020019081526020016000206005016000868152602001908152602001600020600101540192508260076000600181526020019081526020016000206005016000868152602001908152602001600020600101819055508560076000600181526020019081526020016000206005016000868152602001908152602001600020600401600085815260200190815260200160002060010190805190602001906137e9929190615e49565b508460076000600181526020019081526020016000206005016000868152602001908152602001600020600401600085815260200190815260200160002060020160006101000a81548160ff02191690831515021790555061384a86615a3f565b156139c6576001600a6000600954815260200190815260200160002060020160006101000a81548160ff0219169083151502179055506001600854016008819055508560076000600854815260200190815260200160002060030190805190602001906138b8929190615e49565b506001600760006008548152602001908152602001600020600001819055506001600760006008548152602001908152602001600020600101819055506000600760006008548152602001908152602001600020600201819055508660076000600854815260200190815260200160002060050160006001815260200190815260200160002060020160006101000a81548173ffffffffffffffffffffffffffffffffffffffff021916908373ffffffffffffffffffffffffffffffffffffffff160217905550600160076000600854815260200190815260200160002060050160006001815260200190815260200160002060020160146101000a81548160ff0219169083151502179055505b50505050505050565b83823373ffffffffffffffffffffffffffffffffffffffff168173ffffffffffffffffffffffffffffffffffffffff16148015613a5f575060011515600260008373ffffffffffffffffffffffffffffffffffffffff1673ffffffffffffffffffffffffffffffffffffffff16815260200190815260200160002060030160009054906101000a900460ff161515145b8015613a715750613a70828261523b565b5b1515613a7c57600080fd5b60045485101515613a8c57600080fd5b6001600554016005819055508260066000600554815260200190815260200160002060040160006101000a81548160ff021916908315150217905550505050505050565b600080600084333373ffffffffffffffffffffffffffffffffffffffff168173ffffffffffffffffffffffffffffffffffffffff16148015613b65575060011515600260008373ffffffffffffffffffffffffffffffffffffffff1673ffffffffffffffffffffffffffffffffffffffff16815260200190815260200160002060030160009054906101000a900460ff161515145b8015613b775750613b76828261523b565b5b1515613b8257600080fd5b60018610158015613ba9575060076000888152602001908152602001600020600201548611155b1515613bb457600080fd5b60076000888152602001908152602001600020600401600087815260200190815260200160002060000160009054906101000a900473ffffffffffffffffffffffffffffffffffffffff1660076000898152602001908152602001600020600401600088815260200190815260200160002060000160149054906101000a900460ff16600760008a8152602001908152602001600020600401600089815260200190815260200160002060000160159054906101000a900460ff1694509450945050509250925092565b606082823373ffffffffffffffffffffffffffffffffffffffff168173ffffffffffffffffffffffffffffffffffffffff16148015613d10575060011515600260008373ffffffffffffffffffffffffffffffffffffffff1673ffffffffffffffffffffffffffffffffffffffff16815260200190815260200160002060030160009054906101000a900460ff161515145b8015613d225750613d21828261523b565b5b1515613d2d57600080fd5b600760008681526020019081526020016000206003018054600181600116156101000203166002900480601f016020809104026020016040519081016040528092919081815260200182805460018160011615610100020316600290048015613dd75780601f10613dac57610100808354040283529160200191613dd7565b820191906000526020600020905b815481529060010190602001808311613dba57829003601f168201915b50505050509250505092915050565b6000606060006001843373ffffffffffffffffffffffffffffffffffffffff168173ffffffffffffffffffffffffffffffffffffffff16148015613e7d575060011515600260008373ffffffffffffffffffffffffffffffffffffffff1673ffffffffffffffffffffffffffffffffffffffff16815260200190815260200160002060030160009054906101000a900460ff161515145b8015613e8f5750613e8e828261523b565b5b1515613e9a57600080fd5b60018710158015613ead57506009548711155b1515613eb857600080fd5b600a600088815260200190815260200160002060000160009054906101000a900473ffffffffffffffffffffffffffffffffffffffff16600a6000898152602001908152602001600020600101600a60008a815260200190815260200160002060020160009054906101000a900460ff16818054600181600116156101000203166002900480601f016020809104026020016040519081016040528092919081815260200182805460018160011615610100020316600290048015613fbe5780601f10613f9357610100808354040283529160200191613fbe565b820191906000526020600020905b815481529060010190602001808311613fa157829003601f168201915b5050505050915094509450945050509250925092565b60008060603373ffffffffffffffffffffffffffffffffffffffff168473ffffffffffffffffffffffffffffffffffffffff1614151561401357600080fd5b60011515600260008673ffffffffffffffffffffffffffffffffffffffff1673ffffffffffffffffffffffffffffffffffffffff16815260200190815260200160002060030160009054906101000a900460ff16151514151561407557600080fd5b600260008573ffffffffffffffffffffffffffffffffffffffff1673ffffffffffffffffffffffffffffffffffffffff1681526020019081526020016000206000015484600260008773ffffffffffffffffffffffffffffffffffffffff1673ffffffffffffffffffffffffffffffffffffffff168152602001908152602001600020600201808054600181600116156101000203166002900480601f0160208091040260200160405190810160405280929190818152602001828054600181600116156101000203166002900480156141905780601f1061416557610100808354040283529160200191614190565b820191906000526020600020905b81548152906001019060200180831161417357829003601f168201915b505050505090509250925092509193909250565b600060608060608089333373ffffffffffffffffffffffffffffffffffffffff168173ffffffffffffffffffffffffffffffffffffffff1614801561423c575060011515600260008373ffffffffffffffffffffffffffffffffffffffff1673ffffffffffffffffffffffffffffffffffffffff16815260200190815260200160002060030160009054906101000a900460ff161515145b801561424e575061424d828261523b565b5b151561425957600080fd5b6142658b8b8b8b614ed5565b1561427f5760018b8b8b8b96509650965096509650614290565b60008b8b8b8b965096509650965096505b50509550955095509550959050565b60008060008088883373ffffffffffffffffffffffffffffffffffffffff168173ffffffffffffffffffffffffffffffffffffffff16148015614335575060011515600260008373ffffffffffffffffffffffffffffffffffffffff1673ffffffffffffffffffffffffffffffffffffffff16815260200190815260200160002060030160009054906101000a900460ff161515145b80156143475750614346828261523b565b5b151561435257600080fd5b600015156143618c8b8b6153d7565b151514151561436f57600080fd5b600760008c815260200190815260200160002060020154600760008d815260200190815260200160002060050160006143a88e8e615537565b8152602001908152602001600020600001541015156143c657600080fd5b6001600760008d815260200190815260200160002060050160006143ea8e8e615537565b8152602001908152602001600020600001540194506144098b8b615537565b935084600760008d815260200190815260200160002060050160008681526020019081526020016000206000018190555088600760008d81526020019081526020016000206005016000868152602001908152602001600020600301600087815260200190815260200160002060000160006101000a81548173ffffffffffffffffffffffffffffffffffffffff021916908373ffffffffffffffffffffffffffffffffffffffff16021790555086600760008d81526020019081526020016000206005016000868152602001908152602001600020600301600087815260200190815260200160002060020160006101000a81548160ff02191690831515021790555087600760008d81526020019081526020016000206005016000868152602001908152602001600020600301600087815260200190815260200160002060020160016101000a81548160ff02191690831515021790555061456e8b8a8a615646565b156147b8576001600760008d8152602001908152602001600020600401600087815260200190815260200160002060000160156101000a81548160ff0219169083151502179055508715614733576001600760008d81526020019081526020016000206000015401600760008d8152602001908152602001600020600001819055506001600760008d81526020019081526020016000206001015401600760008d815260200190815260200160002060010181905550600760008c815260200190815260200160002060000154925088600760008d8152602001908152602001600020600501600085815260200190815260200160002060020160006101000a81548173ffffffffffffffffffffffffffffffffffffffff021916908373ffffffffffffffffffffffffffffffffffffffff1602179055506001600760008d8152602001908152602001600020600501600085815260200190815260200160002060020160146101000a81548160ff021916908315150217905550600760008c815260200190815260200160002060020154600760008d81526020019081526020016000206005016000858152602001908152602001600020600001819055506147b7565b61473d8b8a615537565b93506001600760008d81526020019081526020016000206001015403600760008d8152602001908152602001600020600101819055506000600760008d8152602001908152602001600020600501600086815260200190815260200160002060020160146101000a81548160ff0219169083151502179055505b5b60019550505050505095945050505050565b60008060008060008087333373ffffffffffffffffffffffffffffffffffffffff168173ffffffffffffffffffffffffffffffffffffffff16148015614863575060011515600260008373ffffffffffffffffffffffffffffffffffffffff1673ffffffffffffffffffffffffffffffffffffffff16815260200190815260200160002060030160009054906101000a900460ff161515145b80156148755750614874828261523b565b5b151561488057600080fd5b61488a8a8a615537565b9350600760008b81526020019081526020016000206005016000858152602001908152602001600020600001549250600760008b8152602001908152602001600020600201548310156149a957600760008b8152602001908152602001600020600501600085815260200190815260200160002060000154600760008c815260200190815260200160002060020154600760008d8152602001908152602001600020600401600086815260200190815260200160002060000160009054906101000a900473ffffffffffffffffffffffffffffffffffffffff16600760008e8152602001908152602001600020600401600087815260200190815260200160002060000160149054906101000a900460ff1697509750975097506149c1565b60008060008083935082925081915097509750975097505b5050505092959194509250565b60003373ffffffffffffffffffffffffffffffffffffffff168373ffffffffffffffffffffffffffffffffffffffff16141515614a0a57600080fd5b60011515614a1784615da5565b1515141515614a2557600080fd5b60016000540160008190555060018390806001815401808255809150509060018203906000526020600020016000909192909190916101000a81548173ffffffffffffffffffffffffffffffffffffffff021916908373ffffffffffffffffffffffffffffffffffffffff1602179055505081600260008573ffffffffffffffffffffffffffffffffffffffff1673ffffffffffffffffffffffffffffffffffffffff1681526020019081526020016000206002019080519060200190614aed929190615e49565b506000600260008573ffffffffffffffffffffffffffffffffffffffff1673ffffffffffffffffffffffffffffffffffffffff16815260200190815260200160002060030160006101000a81548160ff0219169083151502179055506001905092915050565b600080600190505b600260008573ffffffffffffffffffffffffffffffffffffffff1673ffffffffffffffffffffffffffffffffffffffff1681526020019081526020016000206000015481111515614cb657614c9b600360008673ffffffffffffffffffffffffffffffffffffffff1673ffffffffffffffffffffffffffffffffffffffff16815260200190815260200160002060008381526020019081526020016000206001018054600181600116156101000203166002900480601f016020809104026020016040519081016040528092919081815260200182805460018160011615610100020316600290048015614c905780601f10614c6557610100808354040283529160200191614c90565b820191906000526020600020905b815481529060010190602001808311614c7357829003601f168201915b5050505050846158bd565b15614ca95760019150614d0d565b8080600101915050614b5b565b6001600260008673ffffffffffffffffffffffffffffffffffffffff1673ffffffffffffffffffffffffffffffffffffffff1681526020019081526020016000206000015401811415614d0c5760009150614d0d565b5b5092915050565b600080600190505b600260008573ffffffffffffffffffffffffffffffffffffffff1673ffffffffffffffffffffffffffffffffffffffff1681526020019081526020016000206000015481111515614e7757614e5c600360008673ffffffffffffffffffffffffffffffffffffffff1673ffffffffffffffffffffffffffffffffffffffff16815260200190815260200160002060008381526020019081526020016000206002018054600181600116156101000203166002900480601f016020809104026020016040519081016040528092919081815260200182805460018160011615610100020316600290048015614e515780601f10614e2657610100808354040283529160200191614e51565b820191906000526020600020905b815481529060010190602001808311614e3457829003601f168201915b5050505050846158bd565b15614e6a5760019150614ece565b8080600101915050614d1c565b6001600260008673ffffffffffffffffffffffffffffffffffffffff1673ffffffffffffffffffffffffffffffffffffffff1681526020019081526020016000206000015401811415614ecd5760009150614ece565b5b5092915050565b60008060006005549050600191505b808211151561522c576006600083815260200190815260200160002060040160009054906101000a900460ff168015614fd15750614fd0600660008481526020019081526020016000206000018054600181600116156101000203166002900480601f016020809104026020016040519081016040528092919081815260200182805460018160011615610100020316600290048015614fc55780601f10614f9a57610100808354040283529160200191614fc5565b820191906000526020600020905b815481529060010190602001808311614fa857829003601f168201915b5050505050886158bd565b5b80156150915750615090600660008481526020019081526020016000206001018054600181600116156101000203166002900480601f0160208091040260200160405190810160405280929190818152602001828054600181600116156101000203166002900480156150855780601f1061505a57610100808354040283529160200191615085565b820191906000526020600020905b81548152906001019060200180831161506857829003601f168201915b5050505050876158bd565b5b80156151515750615150600660008481526020019081526020016000206002018054600181600116156101000203166002900480601f0160208091040260200160405190810160405280929190818152602001828054600181600116156101000203166002900480156151455780601f1061511a57610100808354040283529160200191615145565b820191906000526020600020905b81548152906001019060200180831161512857829003601f168201915b5050505050866158bd565b5b80156152115750615210600660008481526020019081526020016000206003018054600181600116156101000203166002900480601f0160208091040260200160405190810160405280929190818152602001828054600181600116156101000203166002900480156152055780601f106151da57610100808354040283529160200191615205565b820191906000526020600020905b8154815290600101906020018083116151e857829003601f168201915b5050505050856158bd565b5b1561521f5760019250615231565b8180600101925050614ee4565b600092505b5050949350505050565b6000806000808511801561525157506008548511155b151561525c57600080fd5b60076000868152602001908152602001600020600001549150600190505b818111151561535e576001151560076000878152602001908152602001600020600501600083815260200190815260200160002060020160149054906101000a900460ff16151514801561534357508373ffffffffffffffffffffffffffffffffffffffff1660076000878152602001908152602001600020600501600083815260200190815260200160002060020160009054906101000a900473ffffffffffffffffffffffffffffffffffffffff1673ffffffffffffffffffffffffffffffffffffffff16145b156153515760019250615363565b808060010191505061527a565b600092505b505092915050565b600080821180156153be5750600260008473ffffffffffffffffffffffffffffffffffffffff1673ffffffffffffffffffffffffffffffffffffffff168152602001908152602001600020600001548211155b156153cc57600190506153d1565b600090505b92915050565b6000806000806007600088815260200190815260200160002060000154925060009050600191505b8282111515615507578573ffffffffffffffffffffffffffffffffffffffff1660076000898152602001908152602001600020600501600084815260200190815260200160002060020160009054906101000a900473ffffffffffffffffffffffffffffffffffffffff1673ffffffffffffffffffffffffffffffffffffffff1614156154fa576001151560076000898152602001908152602001600020600501600084815260200190815260200160002060020160149054906101000a900460ff16151514156154e25784156154d9576001935061552d565b6000935061552d565b84156154f1576000935061552d565b6001935061552d565b81806001019250506153ff565b60001515811515141561552c578415615523576000935061552d565b6001935061552d565b5b5050509392505050565b600080600060019150600760008681526020019081526020016000206000015490505b808211151561563d576001151560076000878152602001908152602001600020600501600084815260200190815260200160002060020160149054906101000a900460ff16151514801561562357508373ffffffffffffffffffffffffffffffffffffffff1660076000878152602001908152602001600020600501600084815260200190815260200160002060020160009054906101000a900473ffffffffffffffffffffffffffffffffffffffff1673ffffffffffffffffffffffffffffffffffffffff16145b156156305781925061563e565b818060010192505061555a565b5b505092915050565b600080600080600080600080899650600760008c81526020019081526020016000206000015495506001945060019350600092505b858511151561588357600760008c8152602001908152602001600020600501600086815260200190815260200160002060020160149054906101000a900460ff161561587657600760008c81526020019081526020016000206005016000868152602001908152602001600020600001549150600090505b818411151561585f578673ffffffffffffffffffffffffffffffffffffffff16600760008d81526020019081526020016000206005016000878152602001908152602001600020600301600086815260200190815260200160002060000160009054906101000a900473ffffffffffffffffffffffffffffffffffffffff1673ffffffffffffffffffffffffffffffffffffffff161480156157e35750881515600760008d81526020019081526020016000206005016000878152602001908152602001600020600301600086815260200190815260200160002060020160019054906101000a900460ff161515145b1561585257600760008c81526020019081526020016000206005016000868152602001908152602001600020600301600085815260200190815260200160002060020160009054906101000a900460ff16156158445760018301925061584d565b600097506158af565b600190505b83806001019450506156f3565b60001515811515141561587557600097506158af565b5b848060010195505061567b565b600760008c8152602001908152602001600020600101548314156158aa57600197506158af565b600097505b505050505050509392505050565b60006060806000808693508592508351915081835110156158dd57825191505b8251845110156158f05760009450615a35565b8251845111156159035760009450615a35565b600090505b81811015615a2357828181518110151561591e57fe5b9060200101517f010000000000000000000000000000000000000000000000000000000000000090047f0100000000000000000000000000000000000000000000000000000000000000027effffffffffffffffffffffffffffffffffffffffffffffffffffffffffffff1916848281518110151561599957fe5b9060200101517f010000000000000000000000000000000000000000000000000000000000000090047f0100000000000000000000000000000000000000000000000000000000000000027effffffffffffffffffffffffffffffffffffffffffffffffffffffffffffff1916141515615a165760009450615a35565b8080600101915050615908565b81811415615a345760019450615a35565b5b5050505092915050565b6000806000806000806000600760006001815260200190815260200160002060000154955060009250600194505b8585111515615c76576007600060018152602001908152602001600020600501600086815260200190815260200160002060020160149054906101000a900460ff1615615c69576007600060018152602001908152602001600020600501600086815260200190815260200160002060010154915060009050600193505b8184111515615c5257615bd56007600060018152602001908152602001600020600501600087815260200190815260200160002060040160008681526020019081526020016000206001018054600181600116156101000203166002900480601f016020809104026020016040519081016040528092919081815260200182805460018160011615610100020316600290048015615bca5780601f10615b9f57610100808354040283529160200191615bca565b820191906000526020600020905b815481529060010190602001808311615bad57829003601f168201915b5050505050896158bd565b15615c455760076000600181526020019081526020016000206005016000868152602001908152602001600020600401600085815260200190815260200160002060020160009054906101000a900460ff1615615c3757600183019250615c40565b60009650615ca3565b600190505b8380600101945050615aeb565b600015158115151415615c685760009650615ca3565b5b8480600101955050615a6d565b600760006001815260200190815260200160002060010154831415615c9e5760019650615ca3565b600096505b505050505050919050565b60008060006008549150600190505b8181111515615d9957615d7e600760008381526020019081526020016000206003018054600181600116156101000203166002900480601f016020809104026020016040519081016040528092919081815260200182805460018160011615610100020316600290048015615d735780601f10615d4857610100808354040283529160200191615d73565b820191906000526020600020905b815481529060010190602001808311615d5657829003601f168201915b5050505050856158bd565b15615d8c5760009250615d9e565b8080600101915050615cbd565b600192505b5050919050565b60008060009050600090505b600054811015615e3e578273ffffffffffffffffffffffffffffffffffffffff16600182815481101515615de157fe5b9060005260206000200160009054906101000a900473ffffffffffffffffffffffffffffffffffffffff1673ffffffffffffffffffffffffffffffffffffffff161415615e315760009150615e43565b8080600101915050615db1565b600191505b50919050565b828054600181600116156101000203166002900490600052602060002090601f016020900481019282601f10615e8a57805160ff1916838001178555615eb8565b82800160010185558215615eb8579182015b82811115615eb7578251825591602001919060010190615e9c565b5b509050615ec59190615ec9565b5090565b615eeb91905b80821115615ee7576000816000905550600101615ecf565b5090565b905600a165627a7a723058207916f30c5c1be8bb91ba7622896a2efe61321a9692140abafda9e22708389ffd0029",
  "source": "pragma solidity ^0.4.24;\r\n\r\ncontract Optimizedproject {\r\n    \r\n    uint256 usersCount = 0;\r\n    \r\n    struct User{\r\n        uint256 vehiclescount;\r\n        uint256[] vehreqnums;\r\n        string aadhar;\r\n        bool loginstatus;\r\n    }\r\n    \r\n    address[]users;\r\n    mapping(address=>User)userdetails;\r\n    \r\n    struct Vehiclesinfo{\r\n        uint256 number;\r\n        string vin;\r\n        string numberplate;\r\n        string licensenumber;\r\n    }\r\n    mapping(address=>mapping(uint256=>Vehiclesinfo))uservehicles;\r\n    \r\n    function useregister(address _hash,string _aadhar)public returns(bool){\r\n        require(_hash==msg.sender);\r\n        require(hashNotFound(_hash)==true);\r\n        usersCount = usersCount + 1;\r\n        users.push(_hash);\r\n        userdetails[_hash].aadhar = _aadhar;\r\n        userdetails[_hash].loginstatus = false;\r\n        return true;\r\n    }\r\n    \r\n    function hashNotFound(address _hash)internal view returns(bool){\r\n        uint256 i=0;\r\n        for(i=0;i<usersCount;i++){\r\n            if(users[i]==_hash){\r\n                return false;\r\n            }\r\n        }\r\n        return true;\r\n    }\r\n    \r\n    function userlogin(address _hash)public returns(bool){\r\n        require(_hash==msg.sender);\r\n        userdetails[_hash].loginstatus = true;\r\n        return true;\r\n    }\r\n    \r\n    function userlogout(address _hash)public returns(bool){\r\n        require(_hash==msg.sender);\r\n        userdetails[_hash].loginstatus = false;\r\n    }\r\n    \r\n    function displayuserdetails(address _hash)public view returns(uint256,address,string){\r\n        require(_hash == msg.sender);\r\n        require(userdetails[_hash].loginstatus==true);\r\n        return(userdetails[_hash].vehiclescount,_hash,userdetails[_hash].aadhar);\r\n    }\r\n    \r\n    uint256 reqvehregcount = 0;\r\n    uint256 verifiedvehregcount = 0;\r\n    \r\n    struct Vehiclereq{\r\n        string aadhar;\r\n        string vin;\r\n        string numberplate;\r\n        string licensenumber;\r\n        bool status;\r\n    }\r\n    \r\n    mapping(uint256=>Vehiclereq)vehiclereq;\r\n    \r\n    function reqvehreg(address _hash,string _aadhar,string _vin,string _numberplate, string _licensenumber)public{\r\n        require(_hash==msg.sender);\r\n        reqvehregcount = reqvehregcount +1;\r\n        userdetails[_hash].vehreqnums.push(reqvehregcount);\r\n        vehiclereq[reqvehregcount].aadhar = _aadhar;\r\n        vehiclereq[reqvehregcount].vin = _vin;\r\n        vehiclereq[reqvehregcount].numberplate = _numberplate;\r\n        vehiclereq[reqvehregcount].licensenumber = _licensenumber;\r\n    }\r\n    \r\n    function checkvehrespond(uint256 num, address hash)public view validmember(num,hash) returns(bool,uint256,string,string,string,string){\r\n        require(equals(department[num].name,\"D2\"));\r\n        if(verifiedvehregcount<reqvehregcount){\r\n            return (false,verifiedvehregcount+1,vehiclereq[verifiedvehregcount+1].aadhar,vehiclereq[verifiedvehregcount+1].vin,vehiclereq[verifiedvehregcount+1].numberplate,vehiclereq[verifiedvehregcount+1].licensenumber);\r\n        }else{\r\n            return (true,reqvehregcount,\"\",\"\",\"\",\"\");\r\n        }\r\n    }\r\n    \r\n    function vehrespond(uint256 num, uint256 _verifiedvehregcount,address hash,bool decision) public validmember(num,hash){\r\n        require(_verifiedvehregcount<reqvehregcount);\r\n        verifiedvehregcount = verifiedvehregcount +1;\r\n        vehiclereq[verifiedvehregcount].status = decision;\r\n    }\r\n    \r\n    function vehicleregistration(address _hash,string _vin,string _numberplate,string _licensenumber)public returns(bool){\r\n        require(_hash == msg.sender);\r\n        require(userdetails[_hash].loginstatus==true);\r\n        require(vehicleExist(_hash,_vin)==false);\r\n        require(numberPlateExist(_hash,_numberplate)==false);\r\n        require(approvedreg(userdetails[_hash].aadhar,_vin,_numberplate,_licensenumber));\r\n        userdetails[_hash].vehiclescount=userdetails[_hash].vehiclescount+1;\r\n        uint256 index = userdetails[_hash].vehiclescount;\r\n        uservehicles[_hash][index].number = index;\r\n        uservehicles[_hash][index].vin = _vin;\r\n        uservehicles[_hash][index].numberplate = _numberplate;\r\n        uservehicles[_hash][index].licensenumber = _licensenumber;\r\n        return true;\r\n    }\r\n    \r\n    function approvedreg(string _aadhar, string _vin, string _numberplate, string _licensenumber)internal view returns(bool){\r\n        uint256 i;\r\n        uint256 count = verifiedvehregcount;\r\n        for(i=1;i<=count;i++){\r\n            if((vehiclereq[i].status)&&(equals(vehiclereq[i].aadhar,_aadhar))&&(equals(vehiclereq[i].vin,_vin))&&(equals(vehiclereq[i].numberplate,_numberplate))&&(equals(vehiclereq[i].licensenumber,_licensenumber))){\r\n                return true;\r\n            }\r\n        }\r\n        return false;\r\n    }\r\n    \r\n    function vehicleExist(address _hash,string _vin)internal view returns(bool){\r\n        uint256 i;\r\n        for(i=1;i<=userdetails[_hash].vehiclescount;i++){\r\n            if(equals(uservehicles[_hash][i].vin,_vin)){\r\n                return true;\r\n            }\r\n        }\r\n        if(i==userdetails[_hash].vehiclescount+1){\r\n            return false;\r\n        }\r\n    }\r\n    \r\n    function equals(string one, string two)internal pure returns(bool){\r\n        bytes memory a = bytes(one);\r\n        bytes memory b = bytes(two);\r\n        uint minLength = a.length;\r\n        if (b.length < minLength) minLength = b.length;\r\n        if (a.length < b.length){\r\n            return false;\r\n        }else if (a.length > b.length){\r\n            return false;\r\n        }else{\r\n            for (uint i = 0; i < minLength; i ++){\r\n                if(a[i]!=b[i]){\r\n                    return false;\r\n                }\r\n            }\r\n            if(i==minLength) return true;\r\n        }\r\n    }\r\n    \r\n    function numberPlateExist(address _hash,string _numberPlate)internal view returns(bool){\r\n        uint256 i;\r\n        for(i=1;i<=userdetails[_hash].vehiclescount;i++){\r\n            if(equals(uservehicles[_hash][i].numberplate,_numberPlate)){\r\n                return true;\r\n            }\r\n        }\r\n        if(i==userdetails[_hash].vehiclescount+1){\r\n            return false;\r\n        }\r\n    }\r\n    \r\n    function displayvehicledetails(address _hash, uint256 _number)public view returns(uint256,string,string,string){\r\n        require(_hash == msg.sender);\r\n        require(userdetails[_hash].loginstatus==true);\r\n        require(vehicleFound(_hash,_number));\r\n        return(_number,uservehicles[_hash][_number].vin,uservehicles[_hash][_number].numberplate,uservehicles[_hash][_number].licensenumber);\r\n    }\r\n    \r\n    function vehicleFound(address _hash, uint256 _repNo)internal view returns(bool){\r\n        if((_repNo>0)&&(_repNo<=userdetails[_hash].vehiclescount)){\r\n            return true;\r\n        }else{\r\n            return false;\r\n        }\r\n    }\r\n    \r\n    struct Decision{\r\n        address hash;\r\n        string deptname;\r\n        bool opinion;\r\n        bool variety;\r\n    }\r\n    \r\n    struct DepartmentMember{\r\n        uint256 decisionscount;\r\n        uint256 deptdecisionscount;\r\n        address member;\r\n        bool existence;\r\n        mapping(uint256=>Decision)decision;\r\n        mapping(uint256=>Decision)deptdecision;\r\n    }\r\n    \r\n    struct Request{\r\n        address member;\r\n        bool variety;//true-add, false-remove\r\n        bool status;\r\n    }\r\n    \r\n    struct Department{\r\n        uint256 memberscount;\r\n        uint256 presentmemberscount;\r\n        uint256 requestscount;\r\n        string name;\r\n        mapping(uint256=>Request)request;\r\n        mapping(uint256=>DepartmentMember)departmentmember;\r\n    }\r\n    \r\n    mapping(uint256=>Department)department;\r\n    uint256 departmentscount = 0;\r\n    \r\n    constructor(string departmentname)public{\r\n        departmentscount = departmentscount+1;\r\n        department[1].name = departmentname;\r\n        department[1].memberscount = 1;\r\n        department[1].presentmemberscount = 1;\r\n        department[1].requestscount = 0;\r\n        department[1].departmentmember[1].member = msg.sender;\r\n        department[1].departmentmember[1].existence = true;\r\n    }\r\n    \r\n    modifier validmember(uint256 _departmentNo,address _hash){\r\n        require((_hash==msg.sender)&&(userdetails[_hash].loginstatus==true)&&(exist(_departmentNo,_hash)));\r\n        _;\r\n    }\r\n    \r\n    function exist(uint256 number, address hash)internal view returns(bool){\r\n        require((number>0)&&(number<=departmentscount));\r\n        uint256 count = department[number].memberscount;\r\n        uint256 i=1;\r\n        for(i;i<=count;i++){\r\n            if((department[number].departmentmember[i].existence==true)&&(department[number].departmentmember[i].member==hash)){\r\n                return true;\r\n            }\r\n        }\r\n        return false;\r\n    }\r\n    \r\n    //variety: true-add, false-remove;\r\n    function request(uint256 _departmentNo,address _from, address _to,bool _variety)public validmember(_departmentNo,_from) {\r\n        require(donealready(_departmentNo,_to,_variety)==false);\r\n        department[_departmentNo].requestscount = department[_departmentNo].requestscount +1;\r\n        uint256 i = department[_departmentNo].requestscount;\r\n        department[_departmentNo].request[i].member = _to;\r\n        department[_departmentNo].request[i].variety = _variety;\r\n        uint256 position = getmemberposition(_departmentNo,_from);\r\n        department[_departmentNo].departmentmember[position].decisionscount = department[_departmentNo].departmentmember[position].decisionscount +1;\r\n        uint256 index = department[_departmentNo].departmentmember[position].decisionscount;\r\n        department[_departmentNo].departmentmember[position].decision[index].hash = _to;\r\n        department[_departmentNo].departmentmember[position].decision[index].opinion = true;\r\n        department[_departmentNo].departmentmember[position].decision[index].variety = _variety;\r\n        \r\n        //if all the members in governing body are accepted, then add as governing member.\r\n        if(checkapproval(_departmentNo,department[_departmentNo].request[i].member,_variety)){\r\n            department[_departmentNo].request[i].status=true;\r\n            if(_variety){\r\n                department[_departmentNo].memberscount = department[_departmentNo].memberscount + 1;\r\n                department[_departmentNo].presentmemberscount = department[_departmentNo].presentmemberscount + 1;\r\n                department[_departmentNo].departmentmember[department[_departmentNo].memberscount].member = _to;\r\n                department[_departmentNo].departmentmember[department[_departmentNo].memberscount].existence = true;\r\n                department[_departmentNo].departmentmember[department[_departmentNo].memberscount].decisionscount = department[_departmentNo].requestscount;\r\n            }else{\r\n                uint256 pos = getmemberposition(_departmentNo,_to);\r\n                department[_departmentNo].presentmemberscount = department[_departmentNo].presentmemberscount - 1;\r\n                department[_departmentNo].departmentmember[pos].existence = false;\r\n            }\r\n        }\r\n    }\r\n    \r\n    //this function checks whether the respective action is already taken or not.\r\n    function donealready(uint256 number, address hash, bool _variety)internal view returns(bool){\r\n        uint256 a = department[number].memberscount;\r\n        //uint256 b = department[number].departmentmember[].member\r\n        uint256 i;\r\n        bool flag=false;\r\n        for(i=1;i<=a;i++){\r\n            if(department[number].departmentmember[i].member==hash){\r\n                if(department[number].departmentmember[i].existence==true){\r\n                    if(_variety){\r\n                        return true;\r\n                    }else{\r\n                        return false;\r\n                    }\r\n                }else{\r\n                    if(_variety){\r\n                        return false;\r\n                    }else{\r\n                        return true;\r\n                    }\r\n                }\r\n                flag=true;\r\n            }\r\n        }\r\n        if(flag==false){\r\n            if(_variety){\r\n                return false;\r\n            }else{\r\n                return true;\r\n            }\r\n        }\r\n    }\r\n    \r\n    //this functions checks whether all members in body accepted the request to join or to remove\r\n    //i is department no., j is requestcount\r\n    function checkapproval(uint256 i, address addr, bool _variety)internal view returns(bool){\r\n        address k = addr;\r\n        uint256 count = department[i].memberscount;\r\n        uint256 x=1;\r\n        uint256 y=1;\r\n        uint256 action= 0;\r\n        for(x;x<=count;x++){\r\n            if(department[i].departmentmember[x].existence){\r\n                uint256 decount = department[i].departmentmember[x].decisionscount;\r\n                bool flag = false;\r\n                for(y;y<=decount;y++){\r\n                    if((department[i].departmentmember[x].decision[y].hash==k)&&(department[i].departmentmember[x].decision[y].variety==_variety)){\r\n                        if(department[i].departmentmember[x].decision[y].opinion){\r\n                            action = action +1;\r\n                        }else{\r\n                            return false;\r\n                        }\r\n                        flag=true;\r\n                    }    \r\n                }\r\n                if(flag==false){\r\n                    return false;\r\n                }\r\n            }      \r\n        }\r\n        if(action==department[i].presentmemberscount)\r\n            return true;\r\n        else\r\n            return false;\r\n    }\r\n    \r\n    function getmemberposition(uint256 number,address hash)internal view returns(uint256){\r\n        uint256 i=1;\r\n        uint256 count = department[number].memberscount;\r\n        for(i;i<=count;i++){\r\n            if((department[number].departmentmember[i].existence==true)&&(department[number].departmentmember[i].member==hash)){\r\n                return i;\r\n            }\r\n        }\r\n    }\r\n    \r\n    //this function is used for department member to check if there are any pendings to take decisions\r\n    function checkrespond(uint256 number,address hash)public validmember(number,msg.sender) view returns(uint256,uint256,address,bool){\r\n        uint256 pos = getmemberposition(number,hash);\r\n        uint256 i = department[number].departmentmember[pos].decisionscount;\r\n        if(i<department[number].requestscount){\r\n            return(department[number].departmentmember[pos].decisionscount,department[number].requestscount,department[number].request[i].member,department[number].request[i].variety);\r\n        }else{\r\n            return(0,0,0x0,false);\r\n        }\r\n        //\r\n    }\r\n    \r\n    function respond(uint256 number, address _from, address _to,bool _variety,bool _decision)public validmember(number,_from) returns(bool){\r\n        require(donealready(number,_to,_variety)==false);\r\n        require(department[number].departmentmember[getmemberposition(number,_from)].decisionscount<department[number].requestscount);\r\n        uint256 index = department[number].departmentmember[getmemberposition(number,_from)].decisionscount + 1;\r\n        uint256 pos = getmemberposition(number,_from);\r\n        department[number].departmentmember[pos].decisionscount = index;\r\n        department[number].departmentmember[pos].decision[index].hash = _to;\r\n        department[number].departmentmember[pos].decision[index].opinion = _decision;\r\n        department[number].departmentmember[pos].decision[index].variety = _variety;\r\n        if(checkapproval(number,_to,_variety)){\r\n            department[number].request[index].status=true;\r\n            if(_variety){\r\n                department[number].memberscount = department[number].memberscount + 1;\r\n                department[number].presentmemberscount = department[number].presentmemberscount + 1;\r\n                uint256 count = department[number].memberscount;\r\n                department[number].departmentmember[count].member = _to;\r\n                department[number].departmentmember[count].existence = true;\r\n                department[number].departmentmember[count].decisionscount = department[number].requestscount;\r\n            }else{\r\n                pos = getmemberposition(number,_to);\r\n                department[number].presentmemberscount = department[number].presentmemberscount - 1;\r\n                department[number].departmentmember[pos].existence = false;\r\n            }    \r\n        }\r\n        return true;\r\n    }\r\n    \r\n    struct Reqdepartment{\r\n        address member;\r\n        string name;\r\n        bool status;\r\n    }\r\n    \r\n    uint256 depreqcount;\r\n    mapping(uint256 => Reqdepartment)reqdepartment;\r\n    \r\n    function notexistdept(string _name)internal view returns(bool){\r\n        uint256 count = departmentscount;\r\n        uint256 i=1;\r\n        for(i;i<=count;i++){\r\n            if(equals(department[i].name,_name)){\r\n                return false;\r\n            }\r\n        }\r\n        return true;\r\n    }\r\n    \r\n    function departmentrequest(address hash,string _name,bool _opinion)public validmember(1,hash){\r\n        require(notexistdept(_name));\r\n        depreqcount = depreqcount + 1;\r\n        reqdepartment[depreqcount].member = hash;\r\n        reqdepartment[depreqcount].name = _name;\r\n        uint256 pos= getmemberposition(1,hash);\r\n        uint256 index = department[1].departmentmember[pos].deptdecisionscount + 1;\r\n        department[1].departmentmember[pos].deptdecisionscount = index;\r\n        department[1].departmentmember[pos].deptdecision[index].deptname = _name;\r\n        department[1].departmentmember[pos].deptdecision[index].opinion = _opinion;\r\n        if(deptcheckapproval(_name)){\r\n            reqdepartment[depreqcount].status= true;\r\n            departmentscount = departmentscount +1;\r\n            department[departmentscount].name = _name;\r\n            department[departmentscount].memberscount = 1;\r\n            department[departmentscount].presentmemberscount = 1;\r\n            department[departmentscount].requestscount = 0;\r\n            department[departmentscount].departmentmember[1].member = hash;\r\n            department[departmentscount].departmentmember[1].existence = true;\r\n        }\r\n    }\r\n    \r\n    function deptcheckapproval(string j)internal view returns(bool){\r\n        uint256 count = department[1].memberscount;\r\n        uint256 x;\r\n        uint256 y;\r\n        uint256 action = 0;\r\n        for(x=1;x<=count;x++){\r\n            if(department[1].departmentmember[x].existence){\r\n                uint256 decount = department[1].departmentmember[x].deptdecisionscount;\r\n                bool flag = false;\r\n                for(y=1;y<=decount;y++){\r\n                    if(equals(department[1].departmentmember[x].deptdecision[y].deptname,j)){\r\n                        if(department[1].departmentmember[x].deptdecision[y].opinion){\r\n                            action = action+1;\r\n                        }else{\r\n                            return false;\r\n                        }\r\n                        flag=true;\r\n                    }\r\n                }\r\n                if(flag==false){\r\n                    return false;\r\n                }\r\n            }  \r\n        }\r\n        if(action==department[1].presentmemberscount){\r\n            return true;\r\n        }else{\r\n            return false;\r\n        }\r\n    }\r\n    \r\n    function deptcheckrespond(address hash)public validmember(1,hash) view returns(uint256,uint256,address,string){\r\n        uint256 pos = getmemberposition(1,hash);\r\n        uint256 i = department[1].departmentmember[pos].deptdecisionscount;\r\n        if(i<depreqcount){\r\n            return(i+1,depreqcount,reqdepartment[i+1].member,reqdepartment[i+1].name);\r\n        }else{\r\n            return(0,0,0x0,\"\");\r\n        }\r\n    }\r\n    \r\n    function deptrespond(address _from,address _to,string _name,bool _opinion)public validmember(1,_from)returns(bool){\r\n        require(department[1].departmentmember[getmemberposition(1,_from)].deptdecisionscount<depreqcount);\r\n        uint256 pos = getmemberposition(1,_from);\r\n        uint256 index = department[1].departmentmember[pos].deptdecisionscount +1;\r\n        department[1].departmentmember[pos].deptdecisionscount = index;\r\n        department[1].departmentmember[pos].deptdecision[index].deptname = _name;\r\n        department[1].departmentmember[pos].deptdecision[index].opinion = _opinion;\r\n        if(deptcheckapproval(_name)){\r\n            reqdepartment[index].status= true;\r\n            departmentscount = departmentscount +1;\r\n            department[departmentscount].name = _name;\r\n            department[departmentscount].memberscount = 1;\r\n            department[departmentscount].presentmemberscount = 1;\r\n            department[departmentscount].requestscount = 0;\r\n            department[departmentscount].departmentmember[1].member = _to;\r\n            department[departmentscount].departmentmember[1].existence = true;\r\n        }\r\n    }\r\n    \r\n    function getdeptcount(uint256 num,address hash)public validmember(num,hash) view returns(uint256){\r\n        return departmentscount;\r\n    }\r\n    \r\n    function getdeptinfo(uint256 num, address hash)public validmember(num,hash) view returns(string){\r\n        return department[num].name;\r\n    }\r\n    \r\n    function checkcitizendetails(uint256 dn, string uaadhar, string uvin, string unumberplate, string ulicensenumber)public validmember(dn,msg.sender) view returns(bool,string,string,string,string){\r\n        if(approvedreg(uaadhar, uvin, unumberplate, ulicensenumber)){\r\n            return (true,uaadhar, uvin, unumberplate, ulicensenumber);\r\n        }else{\r\n            return (false,uaadhar, uvin, unumberplate, ulicensenumber);\r\n        }\r\n    }\r\n    \r\n    function getdeptmembershipstatus(uint256 _departmentNo,address _hash)public view returns(bool){\r\n        if((_hash==msg.sender)&&(userdetails[_hash].loginstatus==true)&&(exist(_departmentNo,_hash))){\r\n            return true;\r\n        }else{\r\n            return false;\r\n        }\r\n    }\r\n    \r\n    function vehreqexist(uint256 num,address _hash)public view returns(bool){\r\n        require(msg.sender==_hash);\r\n        uint256 count=userdetails[_hash].vehreqnums.length;\r\n        uint256 i;\r\n        for(i=1;i<=count;i++){\r\n            if(userdetails[_hash].vehreqnums[i]==num){\r\n                return true;\r\n            }\r\n        }return false;\r\n    }\r\n    \r\n    function getvehreqdetails(uint256 num,address _hash)public view returns(string,bool){\r\n        require(_hash==msg.sender);\r\n        require(vehreqexist(num,_hash));\r\n        return(vehiclereq[num].vin,vehiclereq[num].status);\r\n    }\r\n    \r\n    function getdeptreqscount()public view returns(uint256){\r\n        return depreqcount;\r\n    }\r\n    \r\n    function getdeptreqdetails(uint256 i,address _hash)public validmember(1,_hash) view returns(address,string,bool){\r\n        require((i>=1)&&(i<=depreqcount));\r\n        return (reqdepartment[i].member,reqdepartment[i].name,reqdepartment[i].status);\r\n    }\r\n    \r\n    function getmemreqscount(uint256 dno)public view returns(uint256){\r\n        return (department[dno].requestscount);\r\n    }\r\n    \r\n    function getmemreqdetails(uint256 dno,uint256 i)public validmember(dno,msg.sender) view returns(address,bool,bool){\r\n        require((i>=1)&&(i<=department[dno].requestscount));\r\n        return (department[dno].request[i].member,department[dno].request[i].variety,department[dno].request[i].status);\r\n    }\r\n}",
  "sourcePath": "C:/Users/vijay_sugali/Desktop/sucpro/contracts/Miniproject.sol",
  "compiler": {
    "name": "solc",
    "version": "0.4.25+commit.59dbf8f1.Emscripten.clang"
  },
  "schemaVersion": "3.0.0-beta.1",
  "updatedAt": "2018-11-21T05:56:52.005Z"
}